:020000040800F2
:10000000403600206902000823270008D524000894
:1000100021270008BB070008CD2E000800000000C3
:10002000000000000000000000000000D1010008F6
:10003000BF0A00080000000015020008E1270008C0
:10004000830200088302000883020008830200087C
:10005000830200088302000883020008830200086C
:10006000830200088302000883020008830200085C
:1000700083020008830200087D0A0008890A00083C
:10008000830200088302000883020008830200083C
:10009000830200088302000883020008830200082C
:1000A0006D28000891280008852800087928000894
:1000B0009D28000883020008A92800088302000880
:1000C00083020008830200088302000883020008FC
:1000D00083020008CD2D0008830200088302000877
:1000E00083020008830200088302000800F002F87F
:1000F00000F05FF80AA090E8000C82448344AAF163
:100100000107DA4501D100F054F8AFF2090EBAE860
:100110000F0013F0010F18BFFB1A43F0010318473B
:10012000104D0000304D00000A444FF0000C10F854
:10013000013B13F0070408BF10F8014B1D1108BF65
:1001400010F8015B641E05D010F8016B641E01F805
:10015000016BF9D113F0080F1EBF10F8014BAD1C55
:100160000C1B09D16D1E58BF01F801CBFAD505E073
:1001700014F8016B01F8016B6D1EF9D59142D6D3CD
:10018000704700000023002400250026103A28BFF5
:1001900078C1FBD8520728BF30C148BF0B607047F9
:1001A000642900F09780002070471FB51FBD10B56F
:1001B00010BD00F0C8FA1146FFF7F7FF02F0B0FEDD
:1001C00000F0E6FA03B4FFF7F2FF03BC00F0EEFA2A
:1001D000224B19680868B0E8F00F80F30988BFF374
:1001E0006F8F4FF0000080F311884EF00D0E7047B6
:1001F0000000000006480068006880F3088862B6C6
:1002000061B6BFF34F8FBFF36F8F00DF00BF00BF3A
:1002100008ED00E0EFF30980BFF36F8F0F4B1A6812
:1002200020E9F00F106008B54FF0500080F31188FE
:10023000BFF34F8FBFF36F8F03F0B0FD4FF000009F
:1002400080F31188BDE8084019680868B0E8F00F2D
:1002500080F30988BFF36F8F704700BFCC00002088
:10026000EFF30580704700000948804709480047C0
:10027000FEE7FEE7FEE7FEE7FEE7FEE7FEE7FEE756
:10028000FEE7FEE704480549054A064B70470000B3
:100290006B280008ED0000084030002040360020A8
:1002A00040320020403200200FB41CB5084B06AA93
:1002B0007B4469460090059800F02DFA0446002022
:1002C000694600F03BFA20461CBC5DF814FB0000B8
:1002D000890400002DE9F0410646002410687529C4
:1002E000314616A510D0AFF30080002802DA404254
:1002F00013A507E031688A0701D512A502E0490776
:1003000004D511A5012401E0AFF3008000210A22E9
:1003100006F1240709E0B0FBF2FCB0FBF2F302FBAC
:100320001C00303078541846491C0028F3D123466D
:100330002A463046BDE8F04100F08FB900000000C9
:100340002D0000002B000000200000002DE9F05FD0
:10035000894604464FF0000ADFF874B1FB44C0F848
:1003600020A02046E1688847002874D0252806D0C0
:10037000D4E901219047206A401C2062F1E7002661
:100380005F462046E16888472028054607DB312D77
:1003900005D2781910F8200C08B10643F1E7B00730
:1003A00001D526F00406C4F81CA00027C4F818A044
:1003B0002A2D09D0284602F09AFD38B304EB8708AD
:1003C000303DC8F8185019E059F8041B204604EBDA
:1003D00087029161E1688847012F054618D1E069DD
:1003E000002820DA26F020061DE0D8F8180000EBDF
:1003F000800005EB40003038C8F818002046E1685E
:100400008847054602F073FD0028EED1012F0AD07F
:100410002E2D08D12046E16888477F1C0546022F13
:1004200046F02006C4DBA069002803DA404246F00B
:100430000106A061F00701D026F010066C2D0BD04C
:10044000682D09D04C2D39D06A2D35D0742D35D07A
:100450007A2D33D016E038E0E1682F4620468847F1
:10046000B842054609D16C2F26D04FF48060E16870
:10047000064320468847054604E06C2F1AD04FF407
:10048000807006430DB3A5F14100192802D820352C
:1004900046F400664A462946204626604E46FFF747
:1004A0007FFE80B101280BD0F61D26F0070000F179
:1004B000080956E74020E4E78020D8E70020D6E787
:1004C00006F104094DE7284652E7206ABDE8F09F8F
:1004D000144A0000032A40F2308010F0030C00F0B0
:1004E000158011F8013BBCF1020F624498BF11F86E
:1004F00001CB00F8013B38BF11F8013BA2F1040227
:1005000098BF00F801CB38BF00F8013B11F003039E
:1005100000F02580083AC0F0088051F8043B083A02
:1005200051F804CBA0E80810F5E7121D5CBF51F8A4
:10053000043B40F8043BAFF30080D20724BF11F81E
:10054000013B11F801CB48BF11F8012B24BF00F883
:10055000013B00F801CB48BF00F8012B704710B5F4
:10056000203AC0F00B80B1E81850203AA0E81850AB
:10057000B1E81850A0E81850BFF4F5AF5FEA027C6C
:1005800024BFB1E81850A0E8185044BF18C918C0DB
:10059000BDE810405FEA827C24BF51F8043B40F87C
:1005A000043B08BF7047D20728BF31F8023B48BF61
:1005B00011F8012B28BF20F8023B48BF00F8012B9F
:1005C00070474FF000020429C0F0128010F0030CB5
:1005D00000F01B80CCF1040CBCF1020F18BF00F836
:1005E000012BA8BF20F8022BA1EB0C0100F00DB8E5
:1005F0005FEAC17C24BF00F8012B00F8012B48BF43
:1006000000F8012B70474FF0000200B513469446E6
:100610009646203922BFA0E80C50A0E80C50B1F15A
:100620002001BFF4F7AF090728BFA0E80C5048BF6E
:100630000CC05DF804EB890028BF40F8042B08BF0C
:10064000704748BF20F8022B11F0804F18BF00F808
:10065000012B70477047704770472DE9F0470D46F2
:1006600099469246044600F124080168880604D59C
:10067000E06921F01001216000E00120A84201DDC5
:10068000471B00E00027A1697A1902EB0900081A4C
:10069000A0612078C00602D42046AFF30080002677
:1006A00008E0D4E901211AF806009047206A401CAE
:1006B000761C20624E45F4DB2078C0060AD5204621
:1006C000AFF3008006E0D4E9012130209047206A92
:1006D000401C2062381EA7F10107F4DC07E0D4E9D2
:1006E000012118F805009047206A401C2062281E4E
:1006F000A5F10105F3DC2046AFF300802078000669
:1007000002D50220BDE8F0870120FBE701694A1C01
:1007100002610878704700B58FB0CDE90131002142
:10072000059105497944CDE9031011466846FFF764
:100730000DFE0FB000BD0000E5FFFFFF0A6802F8E4
:10074000010B0A607047754600F02CF8AE460500B4
:100750006946534620F00700854618B020B5FFF7DC
:1007600091FDBDE820404FF000064FF000074FF02C
:1007700000084FF0000B21F00701AC46ACE8C009BF
:10078000ACE8C009ACE8C009ACE8C0098D467047C8
:1007900010B50446AFF300802046BDE81040FFF7D7
:1007A00011BD000000487047DC2F002001491820CF
:1007B000ABBEFEE7260002007047FEE72D4F002586
:1007C000691E786B02F0ECFC02212B4E04464FF4BC
:1007D00000584FF480494FF4004A0160002003F0B4
:1007E00077FA6D1C012D04D0022D13D0032D26D0D5
:1007F0003AE04FF47A70A060E06020610122414647
:10080000304600F0D4FB01224946304600F0CFFBD1
:1008100000220FE04FF4FA60A060E0602061012246
:100820004146304600F0C3FB00224946304600F006
:10083000BEFB01225146304600F0B9FB14E040F601
:10084000B830A060E060206100224146304600F0F0
:10085000AEFB01224946304600F0A9FB0122514679
:10086000304600F0A4FB00252146786B02F01AFD0B
:10087000B4E70000800000200010014070B50024A3
:10088000282002F03BFB0D4E4FF4804529463046B0
:1008900000F088FB80B9502002F030FB294630463A
:1008A00000F080FB08B1012400E0FF242946304617
:1008B00000F078FB0028F9D1204670BD000C014003
:1008C0002DE9F041144E00244FF001084FF4804709
:1008D0003946304600F066FB0028F9D0282002F0A7
:1008E0000DFB3946304600F05DFB0028C4F10701DE
:1008F00008FA01F00ED02843C5B23946304600F060
:1009000051FB0028F9D1641CE4B2082CE0D328463E
:10091000BDE8F0818543F0E7000C014070B50F4D54
:100920004FF480442146284601F049FF0022214629
:10093000284600F03CFB46F2A81002F0DFFA012244
:100940002146284600F033FB192002F0D7FA214651
:100950002846BDE8704001F027BF0000000C0140B0
:10096000F8B546211548FFF72CFE00F025FB144C86
:100970000646E067606E04F06FF80546206E04F0EE
:100980006BF80246A06F2B46301A00900DA10B4861
:10099000FFF78AFCE06FA067084A0020115C09B9E4
:1009A000411CE170401C4628F8D3BDE8F8400349DB
:1009B000462201F5CD7001F011BD0000EA010020D2
:1009C000000000200A54656D70657261747572656F
:1009D0003A2025646F432C2048756D6964697479E9
:1009E0003A20256425252025640A0000224C002594
:1009F0006E1E3146206B02F0D3FB4FF00108074614
:100A0000C0F800803146A06B02F0CAFBA146064642
:100A1000803C40F6847AC0F8008000BF03F040FDBF
:100A2000411B0546A16303F03BFD804601F07AFEC1
:100A300003F036FDA0EB08002065606E04F028F896
:100A4000B860206E04F024F878603946C846D9F8BA
:100A5000300002F027FC606E04F01AF8B060206EDF
:100A600004F016F870603146D8F8380002F01AFC2D
:100A7000504602F089FBD1E780000020014800F0D9
:100A800091B800000C040020014800F08BB8000071
:100A9000C803002030B590F840500124AC40C56B2D
:100AA0006C60046863604368102B036803D099602E
:100AB0000068C26030BD9A600068C16030BD704798
:100AC00072B6FEE710B590F821100022022905D079
:100AD0000421816380F82020012010BD01680B688B
:100AE00023F00E030B6001680B6823F001030B6019
:100AF00090F84030C46B012101FA03F3636080F881
:100B0000211080F82020104610BD000010B590F88C
:100B100021100024022903D00421816301243DE037
:100B200001680A6822F00E020A6001680A6822F071
:100B300001020A601A4A0168914201D1012121E0B3
:100B4000174A1432914201D110211BE0144A283275
:100B5000914201D1891515E0114A3C32914201D1EF
:100B600089140FE00E4A5032914202D14FF4803185
:100B700008E00B4A6432914202D14FF4801101E047
:100B80004FF08071064A083A5160012180F8211027
:100B9000002180F82010416B01B18847204610BD2C
:100BA000080002402DE9F05FC16B0C6801680B681A
:100BB000D0F840C0042202FA0CF2494DDFF824A11B
:100BC000494E4A4FDFF828B1DFF828E122422CD005
:100BD0005A072AD50A68920603D40A6822F004024A
:100BE0000A600168A94201D1042219E0514501D1EE
:100BF000402215E0B14202D14FF4806210E0B942C8
:100C000002D14FF480420BE0594502D14FF48022CB
:100C100006E0714502D14FF4800201E04FF080629E
:100C20002F4908394A60C16A3BE04FF0020808FAD0
:100C30000CF818EA040F4FF000094FF0010235D00C
:100C40005FEA837832D50B689B0605D40B6823F0E6
:100C50000A030B6080F821200168A94201D1022219
:100C600019E0514501D1202215E0B14202D14FF4E3
:100C7000007210E0B94202D14FF400520BE0594526
:100C800002D14FF4003206E0714502D14FF4001258
:100C900001E04FF00072124908394A6080F8209054
:100CA000816A00291AD0BDE8F05F0847082505FAD7
:100CB0000CF5254212D01B0710D50B6823F00E034C
:100CC0000B6090F84010C36B02FA01F15960826327
:100CD00080F8212080F82090016BE2E7BDE8F09FCA
:100CE000080002401C000240300002404400024064
:100CF000580002406C00024030B528B308C81349C0
:100D000014221944B1FBF2F18900C16310498163D7
:100D1000022141771A6843F6F0718A43D0E9001442
:100D20002143D0E902452C4321430469214344690E
:100D30002143846921431143196000214163012249
:100D400042770177084630BD012030BDF8FFFDBF76
:100D50000000024070B5044690F8200000250128EC
:100D60000CD0012084F8200094F821600020012E8E
:100D700006D084F820000225284670BD022070BDF0
:100D8000022684F82160A0632068066826F0010628
:100D900006602046FFF77EFEE06A002820680168B2
:100DA00002D041F00E0106E021F00401016020684C
:100DB000016841F00A0101602068016841F0010109
:100DC0000160D9E72DE9F84FDFF8B891002409F167
:100DD000040A0AF1040B23460F270BF1040EC9E0A5
:100DE0000125A5402A40AA427DD1674ED1F804C012
:100DF000ACEB0608B44532D014DCBCF1030F3AD09A
:100E000009DCBCF1000F2AD0BCF1010F1CD0BCF1F1
:100E1000020F31D11DE0BCF1110F17D0BCF1120F40
:100E20002AD119E0B8F5881F19D006DCB8F5803F43
:100E300015D0B8F5801F1FD111E0B8F5001F0ED0F6
:100E4000B8F5041F18D10AE0CB6815E0CB681B1D6C
:100E500012E0CB6808330FE0CB680C330CE08B68F2
:100E60002BB1012B4FF0080303D0456104E00423AC
:100E700002E0056100E00023FF2A01D8064601E0F8
:100E800000F104064FEA840501D9A5F12005D6F842
:100E9000008007FA05FC28EA0C0803FA05F548EA81
:100EA0000508C6F800804D68ED0062D5374DAE6983
:100EB00046F00106AE61AD6924F0030605F00105B8
:100EC0000095334D06EB050CDCF80850A607360FED
:100ED00007FA06F825EA0805DFF8B880404503D18F
:100EE0004FF0000817E044E0DFF8AC80404502D145
:100EF0004FF001080FE0DFF8A480404502D14FF029
:100F0000020808E0DFF89880404502D14FF003085E
:100F100001E04FF0040808FA06F848EA0508CCF8A2
:100F200008804D68D9F80060ED034D4601D51643A1
:100F300000E096432E604D68DAF80060AD03554638
:100F400001D5164300E096432E604D68DBF8006043
:100F5000ED025D4601D5164300E096432E604D68D4
:100F6000DEF80060AD02754601D5164300E09643F9
:100F70002E60641C0D682A46E5407FF431AFBDE861
:100F8000F88F000000040140000011100010024022
:100F90000000014000080140000C01400010014029
:100FA000001401408068084000D0012070470AB159
:100FB000016170470904FBE7014880687047000041
:100FC000BC000020074810B5016841F01001016025
:100FD000032000F0A7F80F2000F006F800F050F80A
:100FE000002010BD0020024030B50546204887B0E3
:100FF000C16941F00101C161C06906A900F00100A9
:10100000009001A800F036F90498B8B100F052F948
:10101000400018494FF08042B0FBF1F11648491EDC
:101020000260416040F2E7320021C0E903218160A3
:10103000816100F05BFB040003D015E000F03AF999
:10104000E7E70D4800F006FC04000DD11C2000F07D
:101050003BF8102D07D2002229461C2000F042F850
:101060000648056000E0012407B0204630BD0000BE
:101070000010024040420F00A4060020C0000020E3
:101080000F4808B5816941F001018161816901F072
:1010900001010091C16941F08051C161C069002224
:1010A00000F0805000900F21901E00F01BF80548C2
:1010B000416821F0E06141F00071416008BD00002D
:1010C0000010024000000140002809DB00F01F0270
:1010D000012191404009800000F1E020C0F800119A
:1010E00070470000F0B40E4B1B680C46C3F302239C
:1010F000C3F10705042D00D90425191D072901D2C4
:10110000002300E0DB1E012606FA05F1491E2140FE
:1011100099409E40761E16403143F0BC01F0D7BE88
:101120000CED00E0064900F0070208684FF6FF03E7
:10113000184040EA0220034A10430860704700004C
:101140000CED00E00000FA052DE9F0470F46050020
:1011500061D0434E306800F00700B84209D23068D1
:1011600020F0070038433060306800F00700B842D4
:1011700051D128683B4C810712D5400703D56068E0
:1011800040F4E06060602878000703D5606840F4B0
:10119000605060606068A96820F0F00008436060FB
:1011A0002878C00728D06868012810D02168022854
:1011B00010D0890700292EDA616821F0030101436C
:1011C0006160FFF7F9FE804641F288390DE0216841
:1011D0008903EFE78901EDE7FFF7EEFEA0EB0801D9
:1011E000494502D90320BDE8F0876068696800F0CE
:1011F0000C00B0EB810FEFD1306800F00700B8426F
:101200000BD9306820F0070038433060306800F0B8
:101210000700B84201D00120E5E72878400705D54E
:101220006068E96820F4E06008436060287800079F
:1012300006D56068296920F4605040EAC10060600A
:1012400000F058F86168084AC1F30311515CC840C6
:101250000649086006480068FFF7C6FE0020C2E79E
:1012600000200240001002405C4D0008C800002031
:10127000C00000200F2202600C4A536803F00303F1
:101280004360536803F0F0038360536803F4E06342
:10129000C36052684FF4E06303EAD202026104487B
:1012A000006800F00700086070470000001002406E
:1012B000002002400448054900684968044AC1F317
:1012C0000221515CC8407047C80000200010024055
:1012D0006C4D00080448054900684968044AC1F398
:1012E000C221515CC8407047C80000200010024075
:1012F0006C4D000812A185B00FC98DE80F0014A035
:10130000144A006804905168134801F00C03042B40
:1013100010D0082B0ED1C1F38343C9031DF803007D
:101320000AD5516804AAC1F34041515C0A4A5043AE
:10133000B0FBF1F005B0704708494843FAE70000F8
:1013400002030405060708090A0B0C0D0E0F101006
:10135000010200000010024000127A0000093D0066
:101360002DE9F84F040070D02078C04DC00749D057
:101370006868C0F38100012807D06868C0F3810065
:10138000022809D16868C00306D52868800339D5CA
:1013900060680028E7D035E06068B0F5803F0BD08A
:1013A00010B1B0F5A02F11D0286820F4803028604B
:1013B000286820F4802002E0286840F4803028600B
:1013C000606890B1FFF7F8FD06460AE0286840F42F
:1013D00080202860F0E700BFFFF7EEFD801B642847
:1013E00073D828688003F7D50CE0FFF7E5FD0646C3
:1013F00005E000BFFFF7E0FD801B6428F0D82868F7
:101400008003F7D420789A4E80074FF001094FF0FF
:10141000000839D5686810F00C0F07D06868C0F371
:101420008100022809D16868C00306D428688007B3
:1014300014D52069012808D110E02069B0B1C6F8A0
:101440000090FFF7B9FD074605E00AE1FFF7B4FD9C
:10145000C01B0228C4D828688007F7D528686169AE
:1014600020F0F80040EAC10028600DE0C6F80080D6
:10147000FFF7A2FD074604E0FFF79EFDC01B022810
:1014800023D828688007F7D4207800072CD579481E
:10149000A169D9B1C0F80090FFF78EFD074604E0BE
:1014A000FFF78AFDC01B02280FD8686A8007F7D5AE
:1014B00071484FF4FA510068B0FBF1F0009000BFA2
:1014C0000098411E0091FAD20EE080E0C0F8008042
:1014D000FFF772FD074604E0FFF76EFDC01B022810
:1014E00075D8686A8007F7D42078400760D5E86926
:1014F0000027C00008D4E86940F08050E861E8693E
:10150000012700F0805000905C480168C90513D4A1
:101510000168834641F480710160FFF74DFD82460A
:1015200006E000BFFFF748FDA0EB0A0064284ED894
:10153000DBF80000C005F5D5E06801280AD008B145
:10154000052813D0286A20F001002862286A20F0BC
:10155000040002E0286A40F001002862E06841F2DD
:10156000883B98B1FFF728FD82460BE0286A40F0DF
:1015700004002862EEE700BFFFF71EFDA0EB0A01A2
:1015800059455AD8286A8007F6D50CE0FFF714FDB4
:10159000824605E0FFF710FDA0EB0A0159454CD843
:1015A000286A8007F6D41FB1E86920F08050E8610E
:1015B000E06988B36968C1F38101022944D0022837
:1015C000C6F8608004D0FFF7F7FC044638E034E04A
:1015D000FFF7F2FC074604E0FFF7EEFCC01B022811
:1015E0002BD828688001F7D4206AB0F5803F05D158
:1015F0006868A16820F4003008436860D4E90801F5
:101600000843696821F4741108436860C6F8609063
:10161000FFF7D2FC044606E025E000BFFFF7CCFC54
:10162000001B022809D828688001F7D51BE000BFFD
:10163000FFF7C2FC001B022802D90320BDE8F88F87
:1016400028688001F4D40EE00128F7D06868226A87
:1016500000F48031914204D1616A00F47010884234
:1016600001D00120EAE70020E8E700000010024076
:101670000000424280044242C80000200070004046
:101680007047704770B590F83C20012A26D001249D
:1016900080F83C40022280F83D2003685A689D682B
:1016A00022F070060A6832435A600D4B02689A4273
:1016B00008D0B2F1804F05D00A4B9A4202D00A4BB3
:1016C0009A4204D1496825F080031943916080F85B
:1016D0003D40002180F83C10084670BD022070BDDE
:1016E000002C0140000400400008004010B5040038
:1016F00003D094F83D0010B107E0012010BD002098
:1017000084F83C00204600F01FF8022084F83D00D9
:10171000211D206801F0CEF8012084F8460084F8ED
:101720003E0084F83F0084F8400084F8410084F8CB
:10173000420084F8430084F8440084F8450084F8AB
:101740003D00002010BD000000B585B000210091D3
:10175000019102910391274A01682748914234D1AF
:10176000816941F400618161816901F40061049142
:10177000816941F0040181618069694600F00400DB
:101780000490901500901D48FFF71CFB00220521D6
:101790001820FFF7A7FC1820FFF796FC0022052170
:1017A0001920FFF79FFC1920FFF78EFC002205216E
:1017B0001A20FFF797FC1A20FFF786FC002205216C
:1017C0001B20FFF78FFC1B2010E00D4A91420FD128
:1017D000C16941F00401C161C069002200F0040048
:1017E000049005211E20FFF77DFC1E20FFF76CFCF6
:1017F00005B000BD002C014000100240000801406F
:101800000008004090F83D10012901D001207047E8
:10181000022180F83D1000680B49884208D0B0F1E1
:10182000804F05D00949884202D00949884204D135
:10183000816801F00701062903D0016841F0010128
:101840000160002070470000002C014000040040AF
:101850000008004090F83D10012901D00120704798
:10186000022180F83D100168CA6842F00102CA6096
:1018700000680B49884208D0B0F1804F05D0094973
:10188000884202D00849884204D1816801F00701EA
:10189000062903D0016841F0010101600020704772
:1018A000002C0140000400400008004070B50446D0
:1018B00090F83C00012817D0012584F83C50022004
:1018C00084F83D002068826822F0770222F47F428B
:1018D00082600868502830D00DDC20284DD005DC0F
:1018E00098B310283BD148E0022070BD302844D086
:1018F000402834D139E0602828D0702806D0B0F5CF
:10190000805F2CD0B0F5005F29D10AE0CB68D1E927
:101910000121206801F011F82068816841F0770109
:1019200009E0CB68D1E90121206801F006F82068C0
:10193000816841F48041816011E0CA68496820688B
:1019400001F00DF85021206807E016E0CA684968E8
:10195000206801F041F86021206800F0F8FF84F869
:101960003D50002084F83C0070BDCA68496820687A
:1019700000F0F5FF40212068EFE72268014610469D
:10198000EBE7000070B50546007F012822D1254C09
:10199000607870B101281DD10021284600F00CFBB1
:1019A000E066296800264E62A16E884213D9401A6B
:1019B00019E00021284600F0FFFAA06601206070BF
:1019C0002868016A21F00A0101622868016A41F071
:1019D0000201016270BD814201D8206F04E04FF620
:1019E000FF72511A0844206702F025FF0E4A0F4B80
:1019F00002F034FF4FF0FF3203F0F5F802F0EEFE94
:101A0000606766702868016A21F00A01016228682F
:101A1000016A016206480068C16821F00201C160E4
:101A200070BD0000000000209CC420B07268A13F7F
:101A3000F40200202DE9F041054690F83C000C46E8
:101A4000012836D0012085F83C008AB3042A42D010
:101A50002868082A51D0D4E90023E168066A26F4F0
:101A600080560662C669076A26F4407646EA032372
:101A70004FF6FF7606EA013123F4704319434FF421
:101A8000005627F4005306EA02321A43C16102628B
:101A90002868C16921F44061C1612868C169A268F0
:101AA00041EA0221C161002085F83C00BDE8F081D7
:101AB00001E00220FAE7D4E90012E368286800F0A8
:101AC0005FFF2868816921F00C01816128688169C4
:101AD000A26811430FE0D4E90012E368286800F01F
:101AE0008DFF2868816921F44061816128688169DE
:101AF000A26841EA02218161D5E7D4E90027267B6B
:101B0000016A21F480710162C169036A21F0030155
:101B1000394321F0F00731074FF4007647EA1161AD
:101B200023F4007306EA02221A43C16102622868A4
:101B3000C16921F00C01C1612868C169A268114323
:101B4000B0E710B5040003D094F83D0010B107E0F1
:101B5000012010BD002084F83C00204600F01EF853
:101B6000022084F83D00211D206800F0A3FE012022
:101B700084F8460084F83E0084F83F0084F8400072
:101B800084F8410084F8420084F8430084F844005B
:101B900084F8450084F83D00002010BD7047000027
:101BA00010B5044651B104290DD0082910D094F87D
:101BB000410094F84520012811D10EE094F83E0030
:101BC00094F84220F7E794F83F0094F84320F2E7B6
:101BD00094F8400094F84420EDE7012A01D0012058
:101BE00010BD022051B1042911D0082918D084F861
:101BF000410084F845000C291BD136E084F83E00F2
:101C000084F842002068C26842F0020210E084F8C2
:101C10003F0084F843002068C26842F0040207E0F5
:101C200084F8400084F844002068C26842F008024A
:101C3000C2600122206800F073FE0E4920688842CD
:101C400008D0B0F1804F05D00B49884202D00B4933
:101C5000884204D1816801F00701062903D0016898
:101C600041F001010160002010BD2068C26842F00F
:101C70001002DDE7002C0140000400400008004095
:101C800070B50446006801694FF00005C943890733
:101C900015D4C168C943890711D4E91E0161012027
:101CA0002077206880698007204602D0FFF76AFE0F
:101CB00004E000F098F8204600F096F825772068B8
:101CC0000169C943490717D4C168C943490713D4F7
:101CD0006FF004010161022020772068806910F410
:101CE000407F204602D0FFF74DFE04E000F07BF875
:101CF000204600F079F8257720680169C943090773
:101D000016D4C168C943090712D46FF008010161F4
:101D1000042020772068C0698007204602D0FFF7A2
:101D200031FE04E000F05FF8204600F05DF8257712
:101D300020680169C943C90617D4C168C943C906E7
:101D400013D46FF010010161082020772068C0696A
:101D500010F4407F204602D0FFF714FE04E000F0AC
:101D600042F8204600F040F8257720680169C94311
:101D7000C90708D1C168C943C90704D1891E0161D7
:101D8000204600F033F820680169C943090609D4E8
:101D9000C168C943090605D46FF08001016120467E
:101DA000FFF76EFC20680169C943490609D4C16880
:101DB000C943490605D46FF040010161204600F097
:101DC00010F920680169C94389060BD4C168C94369
:101DD000890607D46FF0200101612046BDE87040FC
:101DE000FFF74FBC70BD7047704700002DE9F05FF2
:101DF0000446FFF7E1F8DFF8AC916B49C9F804003D
:101E00008C4273D1D9F80000A1F58073421CC9F847
:101E10000020C9F810000D6853F822409246EC6289
:101E200053F82220CA60096800264E62A3F5887123
:101E30005E4B51F820200121A9F180009A4201D186
:101E4000C1719EE05A4B9A4201D1017299E0594BFF
:101E50009A427DD10279521CD3B203714279521C4D
:101E6000D5B245718279521CD2B28271847C0CB198
:101E7000017400E00674C47C0CB1417400E0467447
:101E8000447F6D1E95FBF4F704FB1757D7B990F804
:101E90001EC05F1E97FBFCF80CFB1877E3468FB95A
:101EA00090F81CC0571E97FBFCF80CFB18774FB935
:101EB00044B15FEA0B0705D0BCF1000F02D04173BB
:101EC000417526E095FBF4F704FB17577FB990F8AE
:101ED0001EC05F1E97FBFCF80CFB18773FB934B1AE
:101EE000BCF1000F03D0417241751DE04EE095FB3F
:101EF000F4F704FB175777B990F81CC0571E97FBEF
:101F0000FCF80CFB187737B92CB1BCF1000F02D0EC
:101F10008173817508E095FBF4F704FB17551DB933
:101F200014B1817286754675847F5B1E93FBF4F550
:101F300004FB15358DB9057F571E97FBF5FC05FB96
:101F40001C7757B94DB144B1437D847D234300E0F4
:101F500017E00BD1C173817508E093FBF4F504FB26
:101F600015331BB914B1437D03B9C172037F521EEF
:101F700092FBF3F403FB14221AB913B1827D02B968
:101F80000173BAF12D0F01D1C9F80060FFF714F801
:101F9000C9F80800D9F80420801AC9F80C00BDE877
:101FA000F09F0000800000203C030020252700084F
:101FB00071270008610900080246002041B1042988
:101FC00009D008290AD00C2901D11068006C70478B
:101FD0001068406B70471068806B70471068C06B6A
:101FE0007047704738B5044690F83E0020281CD151
:101FF00081B17AB194F83C00012816D0012084F810
:102000003C002063204600F0A9FE002803D1216B8C
:10201000012901D0012038BD21680A684A68009270
:10202000CA6842F01002CA6038BD022038BD000004
:1020300010B50068104A904216D100200F4B4A1E7E
:1020400002E01C5C8CB1401C9042FAD30C48406A00
:1020500002F078FB002807D00A494FF08050086052
:10206000BFF34F8FBFF36F8F10BD0A1A19180348C3
:102070005030FEF72FFAE9E700380140E001002078
:102080008000002004ED00E070470000F8B5026811
:1020900004461068D168536910F00F0F4FF0000527
:1020A00053D003F0010601F4907737435FD0C207A5
:1020B00005D0CA0503D5226C42F001022264420712
:1020C00005D5DA0703D0226C42F0020222648207AF
:1020D00005D5DA0703D0226C42F00402226402071D
:1020E00007D501F02002324303D0226C42F00802EF
:1020F0002264226C002A34D0800604D5880602D5DA
:10210000204600F073FD20684069216CC0F3801008
:10211000090700D430B3204600F047FD206841692C
:1021200049061BD5416921F040014161A06BA8B16E
:1021300058494163A06BFEF7E9FC002811D0A06B61
:10214000416B01B0BDE8F040084783060FD58B0610
:102150000DD52046BDE8F84000F048BD2046FFF709
:1021600093FFF8BD2046FFF78FFF2564F8BD266B6F
:102170002023012E52D1C60650D5CE064ED510686A
:1021800050680090506940062AD5A16B08684068E5
:102190000004000CEAD0A68D8642E7D9E085886964
:1021A000202818D0D06820F48070D0602068416961
:1021B00021F0010141612068416921F04001416144
:1021C00084F83E3025632068C16821F01001C160A9
:1021D000A06BFEF777FCA08DE18D401A81B219E06B
:1021E000A08DE18D401A81B2E08D0028BED000297B
:1021F000BCD0D06820F49070D0602068426922F092
:102200000102426184F83E3025632068C26822F0F2
:102210001002C2602046FFF70BFFF8BD05062BD564
:102220000D0629D594F83D002128F6D1A068B0F517
:10223000805F01D12069B0B1206A411C2162216810
:1022400000784860E08C401E0004000CE084E4D17B
:102250002068C16821F08001C1602068C16841F038
:102260004001C160F8BD206A0088C0F308005060DA
:10227000206A801C2062E5E74006F3D54806F1D5C8
:10228000D168204621F04001D16084F83D3000F053
:10229000E5F8F8BDA52A000870B5040004D094F84C
:1022A0003D00002510B106E0012070BD84F83C50CF
:1022B000204600F023F8242084F83D002068C168FF
:1022C00021F40051C160204600F0ECFC2068016957
:1022D00021F4904101612068416921F02A014161A6
:1022E0002068C16841F40051C1602564202084F851
:1022F0003D0084F83E00002070BD0000F0B585B0C0
:1023000000240646009401940294039400682C492A
:10231000884252D12B48816941F4804181618169B1
:1023200001F480410491816941F004018161806977
:10233000254D00F0040004904FF40070009002203E
:1023400001900320039069462846FEF73BFD2815BF
:10235000CDE90004694628460294FEF733FD1C4D82
:102360001A48802701C5102091C5194845F8104921
:102370006C61AC61EC61FEF7BFFC08B1FEF7A0FB3D
:1023800075636E621148134D1430C5E90004C5E948
:1023900002472C616C61AC612846EC61FEF7ACFC35
:1023A00008B1FEF78DFBB5630022052125206E6282
:1023B000FEF798FE2520FEF787FE05B0F0BD000071
:1023C0000038014000100240000801404400024073
:1023D0000C040020C80300207047704770B5044605
:1023E00090F83D00202830D169B362B394F83C00E6
:1023F00001282AD0012084F83C002162A284E284D2
:1024000000252564212084F83D00636B1048986204
:10241000636B1048D862636B0F481863606B134698
:1024200045632668606B321DFEF794FC21686FF0EF
:102430004000086084F83C502068416941F0800108
:102440004161002070BD012070BD022070BD000000
:10245000732B0008A12B0008B52A000870477047AD
:102460001B4D0024661E3146286B00F099FE0227A2
:10247000804607603146A86B00F092FEA9460646EA
:10248000803D40F6543A076002F00AF8011B04460A
:10249000696402F005F8074600F06AF902F000F8F6
:1024A000C01B6865642000F06FFE696FC8F80C10EF
:1024B00041464F46D9F8300000F0F4FE686FF060F6
:1024C0003146B86B00F0EEFE504600F05DFEDBE7F3
:1024D00080000020FEE700000EB5124D002405F13B
:1024E000800600BF01F0DCFF011B0446E96407E041
:1024F0000868012811D0C8682864306B00F084FE99
:1025000000226846316B00F085FEDDE900012028DD
:10251000EED0C82000F038FEE4E7486828638868F9
:102520006863EAE7000000202DE9F04F85B0002441
:1025300036480094019402940394816941F010019B
:102540008161816901F010010491816941F02001EC
:102550008161816901F020010491816941F00401E8
:102560008161816901F004010491816941F00801F0
:1025700081618069DFF8989000F008004FF46045B1
:102580000490002229464846FEF711FDDFF884A09A
:1025900040F67807002239465046FEF708FDDFF87E
:1025A00078B04FF48848002241465846FEF7FFFCB9
:1025B0000095022601250396CDE901546946484657
:1025C000FEF700FC00970396CDE90154694650469A
:1025D000FEF7F8FB11480095CDE90104694658461D
:1025E000FEF7F0FBCDF800800396CDE90154694673
:1025F0005846FEF7E7FBE802009003200190694689
:102600005846FEF7DFFB05B0BDE8F08F0010024032
:102610000010014000080140000C014000001110B2
:1026200010B58AB0002423480494059406940794B6
:10263000089409940094019402941D490394016044
:102640004721C0E901144FF6FF71C0E9031444614A
:102650008461FFF74BF808B172B6FEE74FF4805083
:10266000049004A91348FFF721F908B172B6FEE7F8
:102670001048FFF766FA08B172B6FEE7089408A999
:102680000C480994FEF7FEFF08B172B6FEE7012080
:10269000CDE9004002940022694606480394FFF702
:1026A000C9F9002801D072B6FEE70AB010BD0000DB
:1026B000002C0140F402002010B586B00024174819
:1026C00000940194029403940494134905940160C6
:1026D00041F61F41C0E901144CF25031C0E9031426
:1026E0008461FFF703F808B172B6FEE74FF480503B
:1026F000009069460948FFF7D9F808B172B6FEE7BD
:10270000049404A905480594FEF7BCFF002801D0F5
:1027100072B6FEE706B010BD000800403C03002082
:10272000FEE7FEE770B5FEF7F9F8FEF7A7F80F4CE5
:102730000028207019D0FEF7C3F82076FEF7C0F805
:102740006076FEF7BDF8A076FEF7BAF8E076FEF701
:10275000B7F86084A07EE084257EA58402F0B8F9F5
:102760002066284602F0B4F9606670BD00000020C3
:1027700070B501220A4DD40221462846FEF717FC07
:102780000A2000F0BBFB002221462846FEF70FFC82
:1027900004480068C16841F00201C16070BD0000DA
:1027A00000080140F40200201FB50022CDE900120C
:1027B0000121CDE902126946FEF704FB1FBD1FB5DA
:1027C000002200910121CDE9011202210391694605
:1027D000FEF7F8FA1FBD012000F0D6FCFBE7000071
:1027E00010B5502080F31188BFF34F8FBFF36F8F68
:1027F00001F05CFE18B104494FF0805008600020E1
:1028000080F3118810BD000004ED00E030B58FB0FA
:1028100028216846FDF7F7FE14210AA8FDF7F3FE0C
:1028200001210804CDE9001000240294022504913E
:10283000CDE907504FF4E01009906846FEF790FD8F
:1028400008B172B6FEE70F20CDE90A054FF48060AB
:10285000CDE90C4002210AA80E94FEF775FC002871
:1028600001D072B6FEE70FB030BD70470148FFF7E8
:1028700007BA0000F40200200148FFF701BA000087
:10288000F40200200148FFF7FBB90000F402002029
:102890000148FFF7F5B90000F40200200148FFF7F6
:1028A000EFB90000A40600200148FFF7E9B90000D5
:1028B0003C030020F0B50268164B174C174D4FF043
:1028C0008047984205D0B84203D0A04201D0A84228
:1028D00003D122F070064A683243984205D0B842CC
:1028E00003D0A04201D0A84203D122F44074CA68A8
:1028F00022434C6922F08002224302608A68C2624D
:102900000A688262984201D109690163012141612B
:10291000F0BD0000002C0140000400400008004011
:1029200010B501F01F030121046A99408C43046231
:10293000016A9A401143016210BD10B5846842EAF1
:10294000032224F47F440A432243826010BD82683C
:1029500022F070020A4342F007018160704710B50F
:10296000036A046A24F001040462846924F0F00418
:1029700044EA021423F00A020A438461026210BD91
:1029800070B5046A24F0010404628469056A0F4E7C
:10299000B04208D0B0F1804F05D00D4EB04202D009
:1029A0000C4EB04203D124F00304144301E044F080
:1029B00001041A0724F0F00444EA126225F00A0325
:1029C00001F00A0119438261016270BD002C0140CF
:1029D000000400400008004010B5036A23F0100313
:1029E00003628369046A23F4704343EA023224F0E9
:1029F000A00343EA01118261016210BD30B5046A8F
:102A000024F0100404628469056A24F4407444EAE2
:102A1000022222F470444FF6FF7202EA033222438C
:102A2000A02425F0A00304EA011119438261016288
:102A300030BD0000194E4FF0FF31706B00F0B0FB5D
:102A40000446174D0120A6F1800805F5CC772060DB
:102A5000002001F03DF9A978C8F858106878606046
:102A6000A878A060E878E0602879206168796061E2
:102A7000A879A061E879E0612146706B00F012FC52
:102A800007490922503901F5D270FFF7ABFA3868CF
:102A9000016821F004010160DAE7000080000020F5
:102AA0003002002010B5406A0021C185C184FFF7C3
:102AB000EBFA10BD70B5446A2068406994F83D1087
:102AC000C0F3C0100025212904D118B1E5842046A7
:102AD00000F083F82068406994F83E10C0F380103D
:102AE000222904D118B1E585204600F05EF8206C5B
:102AF00040F0100020642046FFF7C6FA70BD10B504
:102B00000146406A0968096889061BD40021C1850D
:102B10000168CA6822F48072CA6001684A6922F0BA
:102B200001024A6101684A6922F040024A6120219B
:102B300080F83E10016B012904D10168CA6822F0B7
:102B40001002CA60016B012902D0FFF745FC10BDDD
:102B5000818DFFF76DFA10BD10B5406A016B012938
:102B600002D0FFF73AFC10BD818D4908FFF760FAEB
:102B700010BD10B50146406A0968096889060CD481
:102B80000021C18401684A6922F080024A6100681C
:102B9000C16841F04001C16010BDFFF75FFC10BD8E
:102BA00010B5406AFFF75BFC10BD0168CA6822F4EB
:102BB0009072CA6001684A6922F001024A61016BA1
:102BC000012904D10168CA6822F01002CA602021DC
:102BD00080F83E100021016370470168CA6822F046
:102BE000C002CA60202180F83D10704708B590F8F7
:102BF0003E10222901D0022008BD82684FF4805384
:102C00009A4201D1016921B1816A9A421BD04AB12D
:102C10000AE00268816A5268C2F308020A80816A87
:102C2000891C08E0026972B10268526802F07F02F2
:102C30000A70816A491C8162C18D491E0904090C10
:102C4000C18503D019E002685268F1E70168CA68DB
:102C500022F02002CA600168CA6822F48072CA6049
:102C600001684A6922F001024A61202180F83E1081
:102C7000016B012903D0FFF7AFFB002008BD002145
:102C800001630168CA6822F01002CA6001680A681C
:102C9000D20602D50A6849680091818DFFF7C8F90C
:102CA000EBE7000070B5044600680169E26821F4B2
:102CB0004051114301612169A068084361690843DB
:102CC0002168CA6841F20C639A430243CA602068D3
:102CD0004169A26921F44071114341611E49206894
:102CE000884202D1FEF7F6FA01E0FEF7E3FA00EBC4
:102CF000C00101EB0012606864218000B2FBF0F3B8
:102D0000B3FBF1F36FF018067343B2FBF0F5B2FBBF
:102D1000F0F605EB8305322303EB0515B5FBF1F562
:102D2000B6FBF1F605F0F00505EB0615B2FBF0F683
:102D3000B2FBF0F0B0FBF1F06FF01802504306EB7D
:102D4000800003EB0010B0FBF1F0216800F00F00F1
:102D50002844886070BD00000038014038B58162A9
:102D600082850025134604460564222084F83E002F
:102D7000A26B13489062A26B1248D062A26B1248F9
:102D80001063A06B0A4645632168A06B091DFDF71F
:102D9000E1FF206801684168009184F83C50C168F7
:102DA00041F48071C1602068416941F001014161D5
:102DB0002068416941F040014161002038BD0000B8
:102DC000FF2A0008592B0008B52A00080148FFF720
:102DD0005DB900008403002088B04FF00008642033
:102DE000374CCDE9028041F28837C246834681469E
:102DF0004646A4F1800500BF01F052FB811B064648
:102E0000A96408E00868012801D1D1F804808F681E
:102E1000606B00F0F9F9002204A8616B00F0FAF988
:102E2000DDE904012028EDD0EF65D04500D0C24691
:102E3000002204A8A16B00F0EDF9DDE904012028CF
:102E400020D00398C5F83C90C5E90A0B01F028FB97
:102E50000299411AB81E81422DD901F021FB02903E
:102E600046211848FDF7ADFB02985B46CDE900907E
:102E700015491448039AFDF717FA124A0020115C0D
:102E800071B10FE00868012805D0D1F80C90A06B53
:102E900000F0BAF9CCE748680390D1F808B0F6E73B
:102EA000411CE970401C4628E9D30649462201F539
:102EB000CD70FFF793FA642000F066F99CE70000FC
:102EC00080000020EA010020884D0008FEE7090785
:102ED000090E002804DB00F1E02080F800147047A0
:102EE00000F00F0000F1E02080F8141D704730382A
:102EF0000A2801D2012070470020704704490022AF
:102F00000B685A6209684A6A8242FCD37047000023
:102F1000F4020020EFF30580002800D00120704764
:102F2000BEB0FEF74FF8FFF771FCFFF7FDFA8948D6
:102F3000416941F0010141614069002200F0010056
:102F4000009005210E20FEF7CDF80E20FEF7BCF80C
:102F5000002205210F20FEF7C5F80F20FEF7B4F878
:102F6000FFF75EFBFFF7A8FB7C487B490C22016062
:102F70004FF4E131416000218160C160C0E9041279
:102F80008161C161FFF788F908B172B6FEE7754942
:102F9000734A75481446C1E9002074480861C86343
:102FA0008866CA60C1F8940006208A6108E000BF04
:102FB00041F820200E2823D0192821D024281FD002
:102FC000801CC0B222462B28F2D96949002040F269
:102FD000F31200BF41F82020401CC0B22D28F9D9BF
:102FE00040F2E73204204A6041F820200B30C0B2A2
:102FF0002528F9D940F2DB5207201446CA610BE0BC
:10300000C01CC0B2DFE700BF41F820200D287DD0F2
:1030100018287BD0232879D0801CC0B222462C28C7
:10302000F2D94E484838FEF715FC4C489038FEF768
:10303000E9FB4A4848380068C16841F00101C160B5
:10304000464800219038FEF7ABFD494909225C391A
:103050004248FEF7C7FF414844300068016821F04C
:1030600004010160434DD5E90001CDE932013BA8DF
:103070003490002132A800F099F83F4C2063D5E944
:103080000301CDE935013CA83790002135A800F0B7
:103090008DF8A063D5E90601CDE938013DA83A9045
:1030A000002138A800F082F860631C2205F1240199
:1030B00001A8FDF754FA002101A800F09DF9606114
:1030C0001C2205F1400108A8FDF749FA002108A8D3
:1030D00000F092F9A0611C2205F15C010FA8FDF738
:1030E0003EFA00210FA800F087F9E0621C2205F1EA
:1030F000780116A8FDF733FA002116A800F07CF934
:10310000E0611C2205F194011DA800E01FE0FDF71D
:1031100026FA00211DA800F06FF920621C2205F19B
:10312000B00124A8FDF71BFA002124A800F064F9DF
:1031300060621C2205F1CC012BA8FDF710FA0021DA
:103140002BA800F059F9A06200F025F8FEE7401D19
:10315000C0B264E700100240003801408403002040
:10316000712700082C0100202527000861090008AC
:103170003C020020744C0008800000200146002022
:10318000842900D0C81C704710B500B9012000F098
:103190001DFD002010BD10B500F064FD002010BD25
:1031A000002802D0806800F0ABB870473EB50446F6
:1031B00000200090019002902068009060680190CB
:1031C0000C2000F097FBA1680028086019D004606B
:1031D00000220421206800F063FEA16809684860AD
:1031E000A168096870B1684600F0BFF80100A068E6
:1031F00000688160A068006803D100BF00F07CFC1B
:1032000000203EBD0846F9E710B1806800F0DCB848
:10321000802070472DE9FF410D000646029522D01F
:103220004FF000084446CDF80C80501C20D002B16D
:103230001446FFF76FFE20270028686869461CD0F7
:1032400003AA091D01F03EF8012814D0CDF8008032
:103250000398D8B112494FF080500860BFF34F8FE8
:10326000BFF36F8F12E0802000902A4601990FE093
:103270004FF0FF34DDE70097EAE72246091D00F032
:1032800085FF012808D04CB1402000909DE8070040
:1032900086E80700BDE8FF810097F7E70020F4E724
:1032A00004ED00E013B582B004000FD000200090C0
:1032B000FFF730FE002860684FF0000314D06A4624
:1032C00003A900F005FF012814D102E0802004B01A
:1032D00010BD009880B109494FF080500860BFF3DD
:1032E0004F8FBFF36F8F07E0002203A900F040FE6D
:1032F000012801D0FF20EAE70020E8E704ED00E024
:1033000070B5002504462E46FFF704FE48B1502054
:10331000EFF3118580F31188BFF34F8FBFF36F8FE9
:1033200001E000F0B5FB0021A26809E02069084433
:10333000B0FBF2F302FB130063681B5C43B1491C52
:103340008A42F3D8FFF7E6FD58B185F311880AE009
:10335000626801211154E2682168206100FB0216B5
:10336000F0E700F0B5FB304670BD2DE9F0410546B1
:103370004068C01C20F00307142000F0BBFA0400D2
:103380001FD0002628682661C4E90207286800F0DB
:10339000B1FA606088B12868784300F0ABFA206029
:1033A00040B1002002E061680E54401C296881424F
:1033B000F9D806E0606800F09FFB204600F09CFB17
:1033C00000242046BDE8F08178B171B102688A42DC
:1033D0000BD8891AC268B1FBF2F302FB131323B9AD
:1033E000B1FBF2F182688A4201D8802070474068C0
:1033F00000224254104670477FB50D46044641698D
:10340000B0F9080081B1A16971B1FFF7B7FED4E945
:1034100005128DE80700D4E900102B46226901F05F
:1034200006F8039004B070BDFFF7A8FE03A9CDE92C
:103430000001208A2B4682B2D4E9001000F0CAFFB6
:10344000012801D00020EDE70398EBE72DE9F041DA
:10345000184C0F46054666692068001D00F0C8FA42
:1034600038B9206890F82C1001208840A169814368
:10347000A161681C07D137B12168BDE8F0410E4851
:10348000091D00F0F9BA20683544B542456021684D
:1034900005D2A068BDE8F041091D00F0D5BA60680A
:1034A000091D00F0D1FA206B854200D22563BDE8EA
:1034B000F0810000CC000020C80700202DE9F04179
:1034C000054600F0E5FA2E4C2069401C206120687A
:1034D0002C4F10B1E06940B32DE025602069012830
:1034E00029D1002606EB860007EB800000F09EFA4B
:1034F000761C072EF6D323488C3000F097FA21482B
:10350000A03000F093FA1F48B43000F08FFA1D4845
:10351000C83000F08BFA1B48DC3000F087FA1948FD
:103520008C3060601430A06005E02068E96AC06AF1
:10353000884200D82560E06A401CE062E96A012008
:10354000A26988401043A06101EB810007EB800075
:10355000291D00F091FA00F0BBFAE06900280CD0B8
:103560002068E96AC06A884207D207494FF0805054
:103570000860BFF34F8FBFF36F8FBDE8F08100008D
:10358000CC000020EC06002004ED00E030B4026C1A
:103590000B46002A0BD0C1681144C1604468A142A7
:1035A00001D30168C16030BC1846FCF793BF30BC42
:1035B00070472DE9F041856B174604460026026CE2
:1035C00082B1C7B1E068FCF785FFE168206C091A99
:1035D000E1602268914202D26168081AE060022F1D
:1035E00016D017E02068A8B9606800F0C3FF06464F
:1035F000002060600EE0A068FCF76CFF216CA06802
:103600000844A0606168884204D32068A06001E09B
:1036100005B16D1E6D1CA5633046BDE8F08110B587
:10362000044690F8510058B101280CD002280FD060
:10363000502080F31188BFF34F8FBFF36F8FFEE7E9
:10364000206B00F059FA2046BDE8104000F054BA53
:1036500010BD000010484FF42051420706D0C01D95
:103660000D4920F00700411AC1F520510B4A0023F3
:103670000144C2E900030839103A21F00701116042
:103680004B600B600B1AC0E9001393604FF00040D1
:103690005360D06070470000DC0700201801002054
:1036A000144E154CA6F1C8074FF08058DFF84C9027
:1036B00012E000BF00F0ECF9F068C568281D00F0CA
:1036C00097F92069401E2061E068401EE06000F02C
:1036D000FFF92846FFF7A3FFE0680028EAD1386821
:1036E0000128F9D9C9F80080BFF34F8FBFF36F8F5E
:1036F000F2E70000B4070020CC00002004ED00E059
:103700000346009829B10260C0E90F31012100F0A1
:10371000EBBB0060F8E72DE9F0479A46DDE9098444
:1037200081466FF00303206B03EB82021044089D77
:1037300020F00706700707D0502080F31188BFF3F0
:103740004F8FBFF36F8FFEE723180A5C83F8342096
:103750000A5C12B1401C1028F6D3002784F843708D
:10376000072D00D30625E562C4E91157201D00F09E
:1037700068F904F1180000F064F92461C5F107004C
:103780006462A061E76484F850705246494630464E
:1037900000F01CF92060B8F1000F01D0C8F800401B
:1037A000BDE8F08730B5114900E011460A68824251
:1037B000FBD34B685C18844203D1406818444860CE
:1037C000084643681C18944209D1084C103C2468F0
:1037D000A24209D052681A4442600A681268026024
:1037E000814200D0086030BD0460F9E71801002074
:1037F00010B5044600F04CF9A06B28B15FF000044E
:1038000000F066F9204610BD0124F9E7064841683A
:10381000096829B14168C968C96849680163704786
:103820004FF0FF31FAE70000CC0000200848406864
:10383000401C4FF0500080F3118804D0BFF34F8F2D
:10384000BFF36F8FFEE7BFF34F8FBFF36F8FFEE7BE
:1038500020010020002150B10A4B42699A420FD149
:10386000806AA3F1280290420AD040B108E05020BB
:1038700080F31188BFF34F8FBFF36F8FFEE70121F5
:1038800008467047C80700202DE9F041044600F0C3
:10389000FFF894F9455004F1240609E0606A48B144
:1038A000304600F0B3FE08B100F0BEF96D1E6DB2F7
:1038B000002DF3DC4FF0FF3684F8456000F008F986
:1038C00000F0E6F894F9445004F1100709E020698B
:1038D00048B1384600F09AFE08B100F0A5F96D1E17
:1038E0006DB2002DF3DC84F84460BDE8F04100F0D7
:1038F000EFB800002DE9F0410546002700F046FA38
:10390000314E306808B9FFF7A5FEF06805424BD18B
:10391000C5B3083568070ED005F00700C0F10800F0
:103920000544680707D0502080F31188BFF34F8FFC
:10393000BFF36F8FFEE72DB37068854234D82248FD
:10394000103001460C6801E020460C466168A9422F
:1039500002D221680029F7D131688C4224D007684F
:103960002168016060680837411B10290FD9601970
:10397000420708D0502080F31188BFF34F8FBFF368
:103980006F8FFEE710E041606560FFF70BFF616835
:103990007068401A7060B268904200D2B060F068FF
:1039A00001430020C4E9000100F06AFE780707D057
:1039B000502080F31188BFF34F8FBFF36F8FFEE766
:1039C0003846BDE8F08100000801002010B5031F53
:1039D0004FF080741C601B1F21F001011960191F3A
:1039E000024B0B60143940380A6010BD2D380008B6
:1039F000D0E9013201699A60D0E901235A604A682E
:103A0000824201D182684A60002202610868401E39
:103A10000860086870470000034B036003F154001E
:103A200008608020106070475004002000F10801F9
:103A30004FF0FF32C0E90112C16001610021016055
:103A4000704700210161704730B50B685A1C02D0E5
:103A500000F1080202E0026904E022465468256889
:103A60009D42FAD953684B6099608A605160086141
:103A70000168491C016030BD42684A6093688B60F0
:103A800093685960916008610168491C0160704742
:103A9000502080F31188BFF34F8FBFF36F8F0A4917
:103AA0004868401C486001280CD10848006810F0A4
:103AB000FF0F07D0502080F31188BFF34F8FBFF363
:103AC0006F8FFEE7704700002001002004ED00E04A
:103AD0000849486828B1401E486001D180F3118828
:103AE0007047502080F31188BFF34F8FBFF36F8F63
:103AF000FEE700002001002070B5002827D0144DFB
:103B0000A0F108046168E868014207D1502080F301
:103B10001188BFF34F8FBFF36F8FFEE722683AB172
:103B2000502080F31188BFF34F8FBFF36F8FFEE7F4
:103B30008143616000F02AF9606869680844686040
:103B40002046FFF72FFEBDE8704000F099BD70BD24
:103B5000080100204FF0E02000210161816105494A
:103B60004FF47A720968B1FBF2F1491E41610721F5
:103B700001617047C800002010B5FCF771FB1149C6
:103B800010280ED300F1E02090F8F0030A7890425C
:103B900007D2502080F31188BFF34F8FBFF36F8F90
:103BA000FEE709480068896800F4E060884207D9A8
:103BB000502080F31188BFF34F8FBFF36F8FFEE764
:103BC00010BD0000200100200CED00E010B5020047
:103BD00014D00F48806B38B1502080F31188BFF3A8
:103BE0004F8FBFF36F8FFEE700F0D0F80021104633
:103BF000FFF72CFC00F044FD002807D105494FF0E9
:103C000080500860BFF34F8FBFF36F8F10BD00006F
:103C1000CC00002004ED00E002498A6A0260496994
:103C200041607047CC000020014901204862704784
:103C3000CC00002010B50C4650B109490968183174
:103C4000FFF702FF2046BDE810400121FFF7FEBB51
:103C5000502080F31188BFF34F8FBFF36F8FFEE7C3
:103C6000CC00002010B586B00024039405AA04A956
:103C700003A80494FFF7D0FEDDE903010094CDE929
:103C8000011000230EA11048059A00F0D0FB0F4947
:103C90000028486311D0502080F31188BFF34F8F64
:103CA000BFF36F8F4FF0FF3008630120C8614C6194
:103CB00006B0BDE8104000F09FB806B010BD00008F
:103CC00049444C4500000000A1360008CC0000200B
:103CD00070B50446FFF7DCFE294D04B92C68201DA1
:103CE000FFF786FE58B9E06A264A00EB800152F8D9
:103CF000211021B901218140A8698843A861A06AE7
:103D000018B104F11800FFF773FE1E48211DDC30C6
:103D1000FFF7B2FE94F850000026012801D184F884
:103D20005060FFF7D5FEE86928B1FFF7B1FEFFF755
:103D30006DFDFFF7CDFE2868844213D1E86990B18C
:103D4000A86B38B1502080F31188BFF34F8FBFF3B9
:103D50006F8FFEE70C494FF080500860BFF34F8F24
:103D6000BFF36F8F70BD0748DC3000682969884257
:103D700001D12E6070BDBDE8704000F00FB80000AA
:103D8000CC000020EC06002004ED00E00248816B2E
:103D9000491C816370470000CC0000201448816BEF
:103DA00011B1012141627047002141628169B1FA7C
:103DB00081F1C1F11F0101EB81020E4951F822305E
:103DC0006BB101EB820101F108034A6852684A6055
:103DD0009A4201D152684A60D16801607047502010
:103DE00080F31188BFF34F8FBFF36F8FFEE70000A2
:103DF000CC000020EC0600201CB526490878019074
:103E0000FF20087008788DF800009DF800009DF8EC
:103E1000002000F0F000904207D0502080F311887D
:103E2000BFF34F8FBFF36F8FFEE79DF800001A4B73
:103E300000F0500018700720986005E09DF8002001
:103E400052008DF80020401E9DF800201206F5D487
:103E50009860032807D0502080F31188BFF34F8F5C
:103E6000BFF36F8FFEE74FF44070986001980870C1
:103E70000A48016841F470010160016841F0704135
:103E80000160FFF767FE00205860FCF7B3F90020DF
:103E90001CBD000000E400E02001002020ED00E057
:103EA000F8B517460E46050014D0DEB105FB06F046
:103EB0004830FFF71FFD04000AD0002084F84600B8
:103EC00004F148023B46314628460094FFF718FCAF
:103ED0002046F8BD502080F31188BFF34F8FBFF309
:103EE0006F8FFEE70020E3E770B50D46040025D094
:103EF000FFF7CEFDD4E90F20216802FB00116160BD
:103F00000021A1632168A1600A46D4E90F01401E87
:103F100000FB0121E16021464FF0FF3001F8440F22
:103F2000487004F110008DB1FFF780FD04F124000A
:103F3000FFF77CFDFFF7CCFD012070BD502080F322
:103F40001188BFF34F8FBFF36F8FFEE72169002900
:103F5000F0D000F05BFB0028ECD004494FF080501B
:103F60000860BFF34F8FBFF36F8FE3E704ED00E00E
:103F70002DE9FF4782B01D468A464FF00008040035
:103F800003D0BAF1000F08D011E0502080F311885F
:103F9000BFF34F8FBFF36F8FFEE7206C38B1502017
:103FA00080F31188BFF34F8FBFF36F8FFEE7022DB1
:103FB0000AD1E06B012807D0502080F31188BFF3AD
:103FC0004F8FBFF36F8FFEE700F05CFA3F4F4FF06B
:103FD00000094FF0805648B9049838B1502080F35A
:103FE0001188BFF34F8FBFF36F8FFEE7FFF750FDD0
:103FF000A06BE16B884207D3022D05D00498D0B1A5
:10400000B8F1000F1AD01EE02A4651462046FFF7AD
:10401000D0FA616A19B104F1240000F0F7FA20B176
:104020003E60BFF34F8FBFF36F8FFFF751FD01204D
:1040300006B0BDE8F087FFF74BFD22E06846FFF7CA
:10404000EBFD4FF00108FFF743FDFFF79FFEFFF781
:104050001FFD94F94400401C01D184F8449094F968
:104060004500401C01D184F84590FFF731FD04A9BB
:10407000684600F075F930B12046FFF705FC00F006
:10408000FFFA0020D4E7FFF703FDA06BE16B884245
:1040900013D1FFF71DFD04F110000499FFF7CAFDCD
:1040A0002046FFF7F1FB00F0EBFA00289ED13E60BE
:1040B000BFF34F8FBFF36F8F98E7FFF709FD2046DF
:1040C000FFF7E2FB00F0DCFA90E7000004ED00E00F
:1040D0002DE9F0471F4690468946040003D0B9F108
:1040E000000F08D011E0502080F31188BFF34F8FEC
:1040F000BFF36F8FFEE7206C38B1502080F311883A
:10410000BFF34F8FBFF36F8FFEE7022F0AD1E06B33
:10411000012807D0502080F31188BFF34F8FBFF3E1
:104120006F8FFEE7FFF728FD5020EFF3118680F335
:104130001188BFF34F8FBFF36F8FA06BE16B884285
:1041400006D3022F04D0002086F31188BDE8F08743
:1041500094F945503A4649462046FFF72AFA681C2A
:1041600004D06D1C84F845500120EDE7606A0028FA
:10417000FAD004F1240000F049FA0028F4D0B8F194
:10418000000FF1D00121C8F80010EDE72DE9F74745
:10419000002683B08A46040003D0BAF1000F08D08D
:1041A00011E0502080F31188BFF34F8FBFF36F8F62
:1041B000FEE7206C38B1502080F31188BFF34F8F99
:1041C000BFF36F8FFEE700F05DF9DFF8F4804FF08A
:1041D00000094FF0805748B9059838B1502080F356
:1041E0001188BFF34F8FBFF36F8FFEE7FFF750FCCF
:1041F000A56BC5B151462046FFF7C8F96D1EA563F2
:10420000206950B104F1100000F000FA28B1C8F89C
:104210000070BFF34F8FBFF36F8FFFF759FC012082
:1042200006B0BDE8F087059808B11EB106E0FFF7BB
:104230004FFC27E06846FFF7EFFC0126FFF748FC3C
:10424000FFF7A4FDFFF724FC94F94400401C01D1C2
:1042500084F8449094F94500401C01D184F84590BD
:10426000FFF736FC05A9684600F07AF800282046DA
:104270000AD0FFF709FB00F003FA2046FFF7B8FA6F
:104280000028B3D00020CBE7FFF7B2FA90B104F1D9
:1042900024000599FFF7CEFC2046FFF7F5FA00F061
:1042A000EFF90028A2D1C8F80070BFF34F8FBFF319
:1042B0006F8F9BE72046FFF7E7FA00F0E1F995E7FB
:1042C00004ED00E02DE9F04790468946040003D054
:1042D000B9F1000F08D011E0502080F31188BFF32E
:1042E0004F8FBFF36F8FFEE7206C38B1502080F303
:1042F0001188BFF34F8FBFF36F8FFEE7FFF73CFCD2
:104300005020EFF3118680F31188BFF34F8FBFF376
:104310006F8FA76BF7B194F9445049462046FFF7D9
:1043200035F97F1EA763681C04D06D1C84F84450C7
:10433000012010E020690028FAD004F1100000F0FC
:1043400065F90028F4D0B8F1000FF1D00121C8F8C8
:104350000010EDE7002086F31188BDE8F08700002B
:104360002DE9F0410C46050011D0C4B1FFF790FBD8
:10437000174B5A696E682068911B471C17D02F682D
:104380009B6A9F4219D0964217D8012410E0502012
:1043900080F31188BFF34F8FBFF36F8FFEE750207C
:1043A00080F31188BFF34F8FBFF36F8FFEE70024B8
:1043B000FFF78EFB2046BDE8F081884205D9401A00
:1043C00020602846FFF728FCF1E700202060DCE7AA
:1043D000CC0000202DE9FF5F8346DDE90E8799467A
:1043E00016468A469000FFF785FA05001CD0542037
:1043F000FFF780FA040014D00020256384F85100F0
:10440000CDE90240CDE900874B4632465146584639
:10441000FFF781F92046FFF751F8012004B0BDE80D
:10442000F09F2846FFF768FB4FF0FF30F6E7F0B546
:1044300085B0DDE90B640A9DA6B1DCB15427009775
:104440002663022684F85160002604AFCDE90246B7
:10445000CDE90057FFF75FF92046FFF72FF80498E2
:1044600005B0F0BD502080F31188BFF34F8FBFF32C
:104470006F8FFEE7502080F31188BFF34F8FBFF39B
:104480006F8FFEE70548C16919B1806B18B1002034
:10449000704701207047022070470000CC000020C8
:1044A0000148406970470000CC0000202DE9F04130
:1044B0002E4C0027A06B40B1206A401C2062606A2D
:1044C00000B101273846BDE8F0816669761C666157
:1044D00013D16068006838B1502080F31188BFF3B1
:1044E0004F8FBFF36F8FFEE76068A1686160A060C7
:1044F000A06A401CA062FFF789F9206BDFF870808A
:10450000864209D36068006880B16068C068C56889
:10451000686886420DD220632068C06A00EB800183
:1045200058F821000128CAD90127C8E74FF0FF3009
:10453000F1E7281DFFF75CFAA86A18B105F1180029
:10454000FFF756FAE86A0121A26981401143A1618F
:1045500000EB800108EB8100291DFFF78DFAE86A66
:104560002168C96A8842CDD30127CBE7CC0000205F
:10457000EC06002070B504004FF0000140D0214D42
:104580002868844207D0502080F31188BFF34F8FF2
:10459000BFF36F8FFEE7A06C38B1401EA064636C60
:1045A000E26A9A422CD040B12AE0502080F3118870
:1045B000BFF34F8FBFF36F8FFEE7201DFFF718FA91
:1045C000114A012150B9E06A00EB800352F8233010
:1045D00023B9AB6901FA00F08343AB61606CE06220
:1045E000C0F10700A061E06AAB6981401943A9618D
:1045F00000EB800002EB8000211DFFF73DFA012156
:10460000084670BDCC000020EC0600202DE9F041EA
:10461000C068C468ACB104F118000746FFF7E8F9B8
:10462000154DA86B0126A0B139461448FFF724FAAE
:10463000E06A2968C96A88421CD901206E62BDE817
:10464000F081502080F31188BFF34F8FBFF36F8F3D
:10465000FEE7201DFFF7CCF9E16AAA6906FA01F02E
:104660001043A86101EB81000449B43901EB8000DB
:10467000211DDBE70020E2E7CC000020A00700209E
:104680002DE9F0472C4D00242746A86B38B1FFF7E1
:10469000FFF9A86B401EA863A86B40B146E050200C
:1046A00080F31188BFF34F8FBFF36F8FFEE7296947
:1046B000224E0120D1B3A6F1B40980463068E8B19A
:1046C000F068C46804F11800FFF792F9201DFFF7A5
:1046D0008FF9E06AAA6908FA00F11143A96100EBB9
:1046E000800109EB8100211DFFF7C6F9E06A296806
:1046F000C96A8842E2D3C5F82480DFE70CB1FFF72E
:1047000085F82C6A44B14646FFF7D0FE00B16E62D0
:10471000641EF9D100202862686A38B1084901276F
:1047200038070860BFF34F8FBFF36F8FFFF7D0F9E3
:104730003846BDE8F0870000CC000020A00700202C
:1047400004ED00E02DE9F0410027040015D0FFF74B
:1047500013FA5020EFF3118580F31188BFF34F8FC8
:10476000BFF36F8F2046FFF775F830B3154EB06B6F
:1047700058B104F1180114481DE0502080F311884D
:10478000BFF34F8FBFF36F8FFEE7E06A3168C96AEE
:10479000884200D30127201DFFF72AF9E16A012092
:1047A000B26988401043B06101EB81000649B43919
:1047B00001EB8000211DFFF75FF985F31188384672
:1047C000BDE8F081CC000020A007002002494FF096
:1047D000000000F0D6B900BF0000F87F4FEA115387
:1047E000A3F58063D3F11E03A8BFD3F1200C08DB2F
:1047F0004FF0004242EAC12252EA505232FA03F02C
:10480000704709420BD4102BC4BF0020704703F53A
:10481000787CBCF1FF3F05D04FF0FF3070474FF080
:104820000000704770B500F0C3F800BF49922480C3
:1048300000207047F0E7B0FA80F310FA03F10AD0D5
:10484000C3F11D0303F580634FEA41504FEA035261
:1048500002EBD12170474FF000007047DFF848C1EC
:1048600070B51CEA111E1EBF1CEA13159EEA0C0F40
:1048700095EA0C0F00F06F8081EA030423EA4C13E1
:104880004EEAD47E21EA4C1141F4801143F48013A6
:10489000AE44A1FB024CA0FB0365AEF17F7E36194E
:1048A00055EB0C05A1FB034C4CF10003A0FB021CD3
:1048B00016EB0C06654153F10003094218BF46F0A0
:1048C000010613F4007F0BD14FEA03314FEA0530A4
:1048D000340341EA155140EA16506FF003020AE032
:1048E0004FEAC3214FEAC520F40241EA555140EA9C
:1048F00056506FF0020202EB2E4201EB025585EAA0
:10490000CE710AD05FEA440C18BF24F0004450F185
:10491000000041F1000120EAD47040F2FE7C6245C3
:1049200000D270BDA84214BF4FF080444FF0404405
:10493000002E08BF0024BEF1806FA8BFA1F1C041C6
:10494000BDE8704080F282804FF0000001F1C0416C
:1049500001F0004170479EEA0C0F0CEA131518BFD6
:1049600095EA0C0F06D04FF0000081EA030E0EF01E
:10497000004170BD00F01CF88900013E00F007B84E
:1049800000F009B84FEA430C5FEA5C5C08D081EAAA
:10499000030100F05BB84FEA410C5FEA5C5CF6D1C2
:1049A0004FF00000014970470000FF070000F87F4A
:1049B0000EF1020E2EF0030E5EF8046B364205D4A3
:1049C000012A43EB030515F5001F12D8012841EB1E
:1049D000010C1CF5001F0CD80ED14FEAD17C15F547
:1049E000001F0CEB4C0C0CF1020C08BF4CEBD37C01
:1049F00004E04FF0080C01E04FEAD37C0CEB4C05CF
:104A000026FA05F606F00706B6F1040C06D20EEB00
:104A1000860CBDE870404CF0010C6047DFE80CF0FC
:104A2000090B02024FF000414FF00000A1F50021F8
:104A300070BD19461046012851EB010418BFD4F58A
:104A4000001484BF002001F0004170BD0808A0F5EB
:104A500000114FEA3101704741000B0ED3F19E0265
:104A600008D950F400034FEA032323FA02F048BFA9
:104A70004042704710B500F03EF800BF49922480D4
:104A8000002070476FF0004282EA2000704700006B
:104A9000C10DD1F19E0206DB4FEA002343F0004333
:104AA00023FA02F07047004207D54FEA4001B1F106
:104AB000FE4F02D24FF00000704710B500F01BF817
:104AC00049922480002070476FEA20007047000060
:104AD000B0FA80F310FA03F2C3F19D030AD0D905AE
:104AE00001EB1220530638BF704700F1010008BFE8
:104AF00020F0010070470EF1020E2EF0030E5EF85A
:104B0000044B244204D44FEA4102B2F17F4F11D842
:104B10004FEA4003B3F17F4F0CD80ED14FEAD07C5F
:104B2000B2F17F4F0CEB4C0C0CF1020C08BF4CEBBC
:104B3000D17C04E04FF0080C01E04FEAD17C0CEB93
:104B40004C0324FA03F404F00704B4F1040C06D275
:104B50000EEB840CBDE810404CF0010C6047DFE820
:104B60000CF0070802024FF00040A0F5800010BDD5
:104B70000846420018BFD2F1807288BF00F00040A2
:104B800010BD0CF00F03092B08BF082000F059805E
:104B90000A2B0BD0082B18BF704708BF1CF0400F22
:104BA0000AD04FF000004FF0000170471CF0400F9A
:104BB00018BF4FF0004070471CF0100F08D020F0D5
:104BC000704300F07F4242EAD3014FEA43707047DE
:104BD00000F0604021F07F4242EA000201F07F4095
:104BE00040EA727070474FF0FF0C4CF4E06C1CEA26
:104BF00011531CBF9CEA030C9445C2BFDA4201EB7F
:104C000002517047002B0DD0BCF1000F0FD0002ACD
:104C100001F00041A4BF41F0E04141F07F614FF05D
:104C20000000704701F000414FF00000704750EA6B
:104C300001334FF09B0C18BF4CF0806C7FF4C6AD75
:104C400070471CF4801F11D01CF4E02F03D06FEAD2
:104C5000CC31490070474FF04050EFF3008222F012
:104C6000704242EA000282F3008870474FF0000071
:104C7000704700000E00000010000000000000005F
:104C80000E00000020000000000000000E000000E8
:104C90001000000000000000244E0008D727000884
:104CA0000000000000000000800000000000000084
:104CB00000000000CC4D0008BD0700080000000007
:104CC0000000000080000000000000000000000064
:104CD000104E0008D92D0008000000000000000060
:104CE000800000000000000000000000E04D00080F
:104CF00061240008000000000000000080000000A7
:104D00000000000000000000EC4D0008D92400085D
:104D10000000000000000000800000000000000013
:104D200000000000044E0008352A000800000000C2
:104D300000000000800000000000000000000000F3
:104D4000F84D0008ED090008000000000000000018
:104D500080000000000000000000000000000000D3
:104D6000000000000102030406070809000000001B
:104D7000010203040400000800000000000000021B
:104D800000010000100000000A2054656D7065727B
:104D900061747572653A2025646F43202C20487534
:104DA0006D69646974793A2025642525202C204496
:104DB000697374616E63653A202564202C207469E0
:104DC0006D653A202564200A000000004275747465
:104DD0006F6E5461736B48616E646C6548000000CF
:104DE0004843535230345461736B48004C4344542D
:104DF00061736B48000000004448545461736B4871
:104E000000000000554152545461736B480000008B
:104E1000556172745F5468726573686F6C64546135
:104E2000736B480064656661756C745461736B00E4
:104E3000504E0008000000202C010000280100084E
:104E4000604E00082C010020143500008401000889
:104E50002102B90129BA8210035924F41AAA014186
:04000005080000ED02
:00000001FF
